{
  "abi": [
    {
      "inputs": [
        {
          "internalType": "uint256",
          "name": "enteranceFee",
          "type": "uint256"
        },
        {
          "internalType": "uint256",
          "name": "interval",
          "type": "uint256"
        },
        {
          "internalType": "address",
          "name": "vrfCoordinator",
          "type": "address"
        },
        {
          "internalType": "bytes32",
          "name": "gasLane",
          "type": "bytes32"
        },
        {
          "internalType": "uint64",
          "name": "subscriptionId",
          "type": "uint64"
        },
        {
          "internalType": "uint32",
          "name": "callbackGasLimit",
          "type": "uint32"
        }
      ],
      "stateMutability": "nonpayable",
      "type": "constructor"
    },
    {
      "inputs": [],
      "name": "Lottery__LotteryNotOpen",
      "type": "error"
    },
    {
      "inputs": [],
      "name": "Lottery__NotEnoughEthSent",
      "type": "error"
    },
    {
      "inputs": [],
      "name": "Lottery__TransferFailed",
      "type": "error"
    },
    {
      "inputs": [
        {
          "internalType": "address",
          "name": "have",
          "type": "address"
        },
        {
          "internalType": "address",
          "name": "want",
          "type": "address"
        }
      ],
      "name": "OnlyCoordinatorCanFulfill",
      "type": "error"
    },
    {
      "inputs": [
        {
          "internalType": "uint256",
          "name": "currentBalance",
          "type": "uint256"
        },
        {
          "internalType": "uint256",
          "name": "numPlayers",
          "type": "uint256"
        },
        {
          "internalType": "uint256",
          "name": "lotteryState",
          "type": "uint256"
        }
      ],
      "name": "Raffle__UpkeepNotNeeded",
      "type": "error"
    },
    {
      "anonymous": false,
      "inputs": [
        {
          "indexed": true,
          "internalType": "address",
          "name": "player",
          "type": "address"
        }
      ],
      "name": "EnteredLottery",
      "type": "event"
    },
    {
      "anonymous": false,
      "inputs": [
        {
          "indexed": true,
          "internalType": "address",
          "name": "winner",
          "type": "address"
        }
      ],
      "name": "PickedWinner",
      "type": "event"
    },
    {
      "inputs": [
        {
          "internalType": "bytes",
          "name": "",
          "type": "bytes"
        }
      ],
      "name": "checkUpkeep",
      "outputs": [
        {
          "internalType": "bool",
          "name": "upkeepNeeded",
          "type": "bool"
        },
        {
          "internalType": "bytes",
          "name": "",
          "type": "bytes"
        }
      ],
      "stateMutability": "view",
      "type": "function"
    },
    {
      "inputs": [],
      "name": "enterLottery",
      "outputs": [],
      "stateMutability": "payable",
      "type": "function"
    },
    {
      "inputs": [],
      "name": "getEntranceFee",
      "outputs": [
        {
          "internalType": "uint256",
          "name": "",
          "type": "uint256"
        }
      ],
      "stateMutability": "view",
      "type": "function"
    },
    {
      "inputs": [],
      "name": "getLotteryState",
      "outputs": [
        {
          "internalType": "enum Lottery.LotteryState",
          "name": "",
          "type": "uint8"
        }
      ],
      "stateMutability": "view",
      "type": "function"
    },
    {
      "inputs": [
        {
          "internalType": "uint256",
          "name": "indexOfPlayer",
          "type": "uint256"
        }
      ],
      "name": "getPlayer",
      "outputs": [
        {
          "internalType": "address",
          "name": "",
          "type": "address"
        }
      ],
      "stateMutability": "view",
      "type": "function"
    },
    {
      "inputs": [
        {
          "internalType": "bytes",
          "name": "",
          "type": "bytes"
        }
      ],
      "name": "performUpkeep",
      "outputs": [],
      "stateMutability": "nonpayable",
      "type": "function"
    },
    {
      "inputs": [
        {
          "internalType": "uint256",
          "name": "requestId",
          "type": "uint256"
        },
        {
          "internalType": "uint256[]",
          "name": "randomWords",
          "type": "uint256[]"
        }
      ],
      "name": "rawFulfillRandomWords",
      "outputs": [],
      "stateMutability": "nonpayable",
      "type": "function"
    }
  ],
  "bytecode": {
    "object": "0x61016060405234801561001157600080fd5b50604051610c08380380610c0883398101604081905261003091610084565b6001600160a01b0393909316608081905260a09590955260c0939093526101005260e0929092526001600160401b03166101205263ffffffff16610140526002805460ff60a01b191690554260015561010f565b60008060008060008060c0878903121561009d57600080fd5b86516020880151604089015191975095506001600160a01b03811681146100c357600080fd5b6060880151608089015191955093506001600160401b03811681146100e757600080fd5b60a088015190925063ffffffff8116811461010157600080fd5b809150509295509295509295565b60805160a05160c05160e051610100516101205161014051610a92610176600039600061030a015260006102d3015260006102ad01526000610345015260006103c00152600081816087015261046701526000818161019701526101d90152610a926000f3fe6080604052600436106100705760003560e01c80636b68c03c1161004e5780636b68c03c146100f75780636e04ff0d1461011e578063c1af57851461014c578063e55ae4e81461015457600080fd5b806309bc33a7146100755780631fe543e3146100b55780634585e33b146100d7575b600080fd5b34801561008157600080fd5b506040517f000000000000000000000000000000000000000000000000000000000000000081526020015b60405180910390f35b3480156100c157600080fd5b506100d56100d036600461077c565b61018c565b005b3480156100e357600080fd5b506100d56100f236600461082e565b610219565b34801561010357600080fd5b50600254600160a01b900460ff166040516100ac91906108b6565b34801561012a57600080fd5b5061013e6101393660046108de565b6103b8565b6040516100ac929190610973565b6100d5610465565b34801561016057600080fd5b5061017461016f3660046109cb565b610550565b6040516001600160a01b0390911681526020016100ac565b336001600160a01b037f0000000000000000000000000000000000000000000000000000000000000000161461020b5760405163073e64fd60e21b81523360048201526001600160a01b037f00000000000000000000000000000000000000000000000000000000000000001660248201526044015b60405180910390fd5b610215828261057f565b5050565b6000610233604051806020016040528060008152506103b8565b5090508061028957600054600254479190600160a01b900460ff16600181111561025f5761025f6108a0565b604051632c2193d560e11b8152600481019390935260248301919091526044820152606401610202565b60028054600160a01b60ff60a01b199091161790556040516305d3b1d360e41b81527f000000000000000000000000000000000000000000000000000000000000000060048201527f000000000000000000000000000000000000000000000000000000000000000067ffffffffffffffff166024820152600360448201527f000000000000000000000000000000000000000000000000000000000000000063ffffffff166064820152600160848201526001600160a01b037f00000000000000000000000000000000000000000000000000000000000000001690635d3b1d309060a4016020604051808303816000875af115801561038e573d6000803e3d6000fd5b505050506040513d601f19601f820116820180604052508101906103b291906109e4565b50505050565b6000606060007f0000000000000000000000000000000000000000000000000000000000000000600154426103ed91906109fd565b101590506000600260149054906101000a900460ff166001811115610414576104146108a0565b6000549015915047151590151583801561042b5750825b80156104345750815b801561043d5750805b60408051808201909152600381526203078360ec1b6020820152909890975095505050505050565b7f00000000000000000000000000000000000000000000000000000000000000003410156104a65760405163168b2e4d60e01b815260040160405180910390fd5b6000600254600160a01b900460ff1660018111156104c6576104c66108a0565b146104e45760405163823ea8bb60e01b815260040160405180910390fd5b600080546001810182558180527f290decd9548b62a8d60345a988386fc84ba6bc95484008f6362f93160ef3e5630180546001600160a01b0319163390811790915560405190917fc8001bd3c1806afa3fbde07a543ea4392bd51d3b466cd2427d82baabd430f2a991a2565b600080828154811061056457610564610a24565b6000918252602090912001546001600160a01b031692915050565b6000805482518390839061059557610595610a24565b60200260200101516105a79190610a3a565b905060008082815481106105bd576105bd610a24565b600091825260208083209190910154600280546001600160a81b0319166001600160a01b039092169182179055604080518481529283019081905291519093506106089291906106bb565b50426001556040516001600160a01b038216907fb112587e57bfa970257f3d54fc52859c6300f6bd7a982462c320fed45c2530ed90600090a26000816001600160a01b03164760405160006040518083038185875af1925050503d806000811461068e576040519150601f19603f3d011682016040523d82523d6000602084013e610693565b606091505b50509050806106b45760405162e4a00960e51b815260040160405180910390fd5b5050505050565b828054828255906000526020600020908101928215610710579160200282015b8281111561071057825182546001600160a01b0319166001600160a01b039091161782556020909201916001909101906106db565b5061071c929150610720565b5090565b5b8082111561071c5760008155600101610721565b634e487b7160e01b600052604160045260246000fd5b604051601f8201601f1916810167ffffffffffffffff8111828210171561077457610774610735565b604052919050565b6000806040838503121561078f57600080fd5b8235915060208084013567ffffffffffffffff808211156107af57600080fd5b818601915086601f8301126107c357600080fd5b8135818111156107d5576107d5610735565b8060051b91506107e684830161074b565b818152918301840191848101908984111561080057600080fd5b938501935b8385101561081e57843582529385019390850190610805565b8096505050505050509250929050565b6000806020838503121561084157600080fd5b823567ffffffffffffffff8082111561085957600080fd5b818501915085601f83011261086d57600080fd5b81358181111561087c57600080fd5b86602082850101111561088e57600080fd5b60209290920196919550909350505050565b634e487b7160e01b600052602160045260246000fd5b60208101600283106108d857634e487b7160e01b600052602160045260246000fd5b91905290565b600060208083850312156108f157600080fd5b823567ffffffffffffffff8082111561090957600080fd5b818501915085601f83011261091d57600080fd5b81358181111561092f5761092f610735565b610941601f8201601f1916850161074b565b9150808252868482850101111561095757600080fd5b8084840185840137600090820190930192909252509392505050565b821515815260006020604081840152835180604085015260005b818110156109a95785810183015185820160600152820161098d565b506000606082860101526060601f19601f830116850101925050509392505050565b6000602082840312156109dd57600080fd5b5035919050565b6000602082840312156109f657600080fd5b5051919050565b81810381811115610a1e57634e487b7160e01b600052601160045260246000fd5b92915050565b634e487b7160e01b600052603260045260246000fd5b600082610a5757634e487b7160e01b600052601260045260246000fd5b50069056fea264697066735822122025b171d4f43c9c586249029422cf36becf354b617f98d7cce34a31b50951a16564736f6c63430008130033",
    "linkReferences": {}
  },
  "methodIdentifiers": {
    "checkUpkeep(bytes)": "6e04ff0d",
    "enterLottery()": "c1af5785",
    "getEntranceFee()": "09bc33a7",
    "getLotteryState()": "6b68c03c",
    "getPlayer(uint256)": "e55ae4e8",
    "performUpkeep(bytes)": "4585e33b",
    "rawFulfillRandomWords(uint256,uint256[])": "1fe543e3"
  },
  "id": 25
}