{
  "abi": [
    {
      "inputs": [
        {
          "internalType": "uint256",
          "name": "enteranceFee",
          "type": "uint256"
        },
        {
          "internalType": "uint256",
          "name": "interval",
          "type": "uint256"
        },
        {
          "internalType": "address",
          "name": "vrfCoordinator",
          "type": "address"
        },
        {
          "internalType": "bytes32",
          "name": "gasLane",
          "type": "bytes32"
        },
        {
          "internalType": "uint64",
          "name": "subscriptionId",
          "type": "uint64"
        },
        {
          "internalType": "uint32",
          "name": "callbackGasLimit",
          "type": "uint32"
        }
      ],
      "stateMutability": "nonpayable",
      "type": "constructor"
    },
    {
      "inputs": [],
      "name": "Lottery__LotteryNotOpen",
      "type": "error"
    },
    {
      "inputs": [],
      "name": "Lottery__NotEnoughEthSent",
      "type": "error"
    },
    {
      "inputs": [],
      "name": "Lottery__TransferFailed",
      "type": "error"
    },
    {
      "inputs": [
        {
          "internalType": "address",
          "name": "have",
          "type": "address"
        },
        {
          "internalType": "address",
          "name": "want",
          "type": "address"
        }
      ],
      "name": "OnlyCoordinatorCanFulfill",
      "type": "error"
    },
    {
      "inputs": [
        {
          "internalType": "uint256",
          "name": "currentBalance",
          "type": "uint256"
        },
        {
          "internalType": "uint256",
          "name": "numPlayers",
          "type": "uint256"
        },
        {
          "internalType": "uint256",
          "name": "lotteryState",
          "type": "uint256"
        }
      ],
      "name": "Raffle__UpkeepNotNeeded",
      "type": "error"
    },
    {
      "anonymous": false,
      "inputs": [
        {
          "indexed": true,
          "internalType": "address",
          "name": "player",
          "type": "address"
        }
      ],
      "name": "EnteredLottery",
      "type": "event"
    },
    {
      "anonymous": false,
      "inputs": [
        {
          "indexed": true,
          "internalType": "address",
          "name": "winner",
          "type": "address"
        }
      ],
      "name": "PickedWinner",
      "type": "event"
    },
    {
      "inputs": [
        {
          "internalType": "bytes",
          "name": "",
          "type": "bytes"
        }
      ],
      "name": "checkUpkeep",
      "outputs": [
        {
          "internalType": "bool",
          "name": "upkeepNeeded",
          "type": "bool"
        },
        {
          "internalType": "bytes",
          "name": "",
          "type": "bytes"
        }
      ],
      "stateMutability": "view",
      "type": "function"
    },
    {
      "inputs": [],
      "name": "enterLottery",
      "outputs": [],
      "stateMutability": "payable",
      "type": "function"
    },
    {
      "inputs": [],
      "name": "getEntranceFee",
      "outputs": [
        {
          "internalType": "uint256",
          "name": "",
          "type": "uint256"
        }
      ],
      "stateMutability": "view",
      "type": "function"
    },
    {
      "inputs": [
        {
          "internalType": "bytes",
          "name": "",
          "type": "bytes"
        }
      ],
      "name": "performUpkeep",
      "outputs": [],
      "stateMutability": "nonpayable",
      "type": "function"
    },
    {
      "inputs": [
        {
          "internalType": "uint256",
          "name": "requestId",
          "type": "uint256"
        },
        {
          "internalType": "uint256[]",
          "name": "randomWords",
          "type": "uint256[]"
        }
      ],
      "name": "rawFulfillRandomWords",
      "outputs": [],
      "stateMutability": "nonpayable",
      "type": "function"
    }
  ],
  "bytecode": {
    "object": "0x61016060405234801561001157600080fd5b50604051610b13380380610b1383398101604081905261003091610084565b6001600160a01b0393909316608081905260a09590955260c0939093526101005260e0929092526001600160401b03166101205263ffffffff16610140526002805460ff60a01b191690554260015561010f565b60008060008060008060c0878903121561009d57600080fd5b86516020880151604089015191975095506001600160a01b03811681146100c357600080fd5b6060880151608089015191955093506001600160401b03811681146100e757600080fd5b60a088015190925063ffffffff8116811461010157600080fd5b809150509295509295509295565b60805160a05160c05160e05161010051610120516101405161099d61017660003960006102850152600061024e01526000610228015260006102c00152600061033b015260008181606101526103e20152600081816101120152610154015261099d6000f3fe60806040526004361061004a5760003560e01c806309bc33a71461004f5780631fe543e31461008f5780634585e33b146100b15780636e04ff0d146100d1578063c1af5785146100ff575b600080fd5b34801561005b57600080fd5b506040517f000000000000000000000000000000000000000000000000000000000000000081526020015b60405180910390f35b34801561009b57600080fd5b506100af6100aa3660046106c8565b610107565b005b3480156100bd57600080fd5b506100af6100cc36600461077a565b610194565b3480156100dd57600080fd5b506100f16100ec3660046107ec565b610333565b604051610086929190610881565b6100af6103e0565b336001600160a01b037f000000000000000000000000000000000000000000000000000000000000000016146101865760405163073e64fd60e21b81523360048201526001600160a01b037f00000000000000000000000000000000000000000000000000000000000000001660248201526044015b60405180910390fd5b61019082826104cb565b5050565b60006101ae60405180602001604052806000815250610333565b5090508061020457600054600254479190600160a01b900460ff1660018111156101da576101da6108d9565b604051632c2193d560e11b815260048101939093526024830191909152604482015260640161017d565b60028054600160a01b60ff60a01b199091161790556040516305d3b1d360e41b81527f000000000000000000000000000000000000000000000000000000000000000060048201527f000000000000000000000000000000000000000000000000000000000000000067ffffffffffffffff166024820152600360448201527f000000000000000000000000000000000000000000000000000000000000000063ffffffff166064820152600160848201526001600160a01b037f00000000000000000000000000000000000000000000000000000000000000001690635d3b1d309060a4016020604051808303816000875af1158015610309573d6000803e3d6000fd5b505050506040513d601f19601f8201168201806040525081019061032d91906108ef565b50505050565b6000606060007f0000000000000000000000000000000000000000000000000000000000000000600154426103689190610908565b101590506000600260149054906101000a900460ff16600181111561038f5761038f6108d9565b600054901591504715159015158380156103a65750825b80156103af5750815b80156103b85750805b60408051808201909152600381526203078360ec1b6020820152909890975095505050505050565b7f00000000000000000000000000000000000000000000000000000000000000003410156104215760405163168b2e4d60e01b815260040160405180910390fd5b6000600254600160a01b900460ff166001811115610441576104416108d9565b1461045f5760405163823ea8bb60e01b815260040160405180910390fd5b600080546001810182558180527f290decd9548b62a8d60345a988386fc84ba6bc95484008f6362f93160ef3e5630180546001600160a01b0319163390811790915560405190917fc8001bd3c1806afa3fbde07a543ea4392bd51d3b466cd2427d82baabd430f2a991a2565b600080548251839083906104e1576104e161092f565b60200260200101516104f39190610945565b905060008082815481106105095761050961092f565b600091825260208083209190910154600280546001600160a81b0319166001600160a01b03909216918217905560408051848152928301908190529151909350610554929190610607565b50426001556040516001600160a01b038216907fb112587e57bfa970257f3d54fc52859c6300f6bd7a982462c320fed45c2530ed90600090a26000816001600160a01b03164760405160006040518083038185875af1925050503d80600081146105da576040519150601f19603f3d011682016040523d82523d6000602084013e6105df565b606091505b50509050806106005760405162e4a00960e51b815260040160405180910390fd5b5050505050565b82805482825590600052602060002090810192821561065c579160200282015b8281111561065c57825182546001600160a01b0319166001600160a01b03909116178255602090920191600190910190610627565b5061066892915061066c565b5090565b5b80821115610668576000815560010161066d565b634e487b7160e01b600052604160045260246000fd5b604051601f8201601f1916810167ffffffffffffffff811182821017156106c0576106c0610681565b604052919050565b600080604083850312156106db57600080fd5b8235915060208084013567ffffffffffffffff808211156106fb57600080fd5b818601915086601f83011261070f57600080fd5b81358181111561072157610721610681565b8060051b9150610732848301610697565b818152918301840191848101908984111561074c57600080fd5b938501935b8385101561076a57843582529385019390850190610751565b8096505050505050509250929050565b6000806020838503121561078d57600080fd5b823567ffffffffffffffff808211156107a557600080fd5b818501915085601f8301126107b957600080fd5b8135818111156107c857600080fd5b8660208285010111156107da57600080fd5b60209290920196919550909350505050565b600060208083850312156107ff57600080fd5b823567ffffffffffffffff8082111561081757600080fd5b818501915085601f83011261082b57600080fd5b81358181111561083d5761083d610681565b61084f601f8201601f19168501610697565b9150808252868482850101111561086557600080fd5b8084840185840137600090820190930192909252509392505050565b821515815260006020604081840152835180604085015260005b818110156108b75785810183015185820160600152820161089b565b506000606082860101526060601f19601f830116850101925050509392505050565b634e487b7160e01b600052602160045260246000fd5b60006020828403121561090157600080fd5b5051919050565b8181038181111561092957634e487b7160e01b600052601160045260246000fd5b92915050565b634e487b7160e01b600052603260045260246000fd5b60008261096257634e487b7160e01b600052601260045260246000fd5b50069056fea26469706673582212207a94d754fd81babcc70eea1e4fa63f8bcc3f863fcc1756e8692dd06c95146d2264736f6c63430008130033",
    "linkReferences": {}
  },
  "methodIdentifiers": {
    "checkUpkeep(bytes)": "6e04ff0d",
    "enterLottery()": "c1af5785",
    "getEntranceFee()": "09bc33a7",
    "performUpkeep(bytes)": "4585e33b",
    "rawFulfillRandomWords(uint256,uint256[])": "1fe543e3"
  },
  "id": 2
}