{
  "abi": [
    {
      "inputs": [
        {
          "internalType": "uint256",
          "name": "enteranceFee",
          "type": "uint256"
        },
        {
          "internalType": "uint256",
          "name": "interval",
          "type": "uint256"
        },
        {
          "internalType": "address",
          "name": "vrfCoordinator",
          "type": "address"
        },
        {
          "internalType": "bytes32",
          "name": "gasLane",
          "type": "bytes32"
        },
        {
          "internalType": "uint64",
          "name": "subscriptionId",
          "type": "uint64"
        },
        {
          "internalType": "uint32",
          "name": "callbackGasLimit",
          "type": "uint32"
        }
      ],
      "stateMutability": "nonpayable",
      "type": "constructor"
    },
    {
      "inputs": [],
      "name": "Lottery__LotteryNotOpen",
      "type": "error"
    },
    {
      "inputs": [],
      "name": "Lottery__NotEnoughEthSent",
      "type": "error"
    },
    {
      "inputs": [],
      "name": "Lottery__TransferFailed",
      "type": "error"
    },
    {
      "inputs": [
        {
          "internalType": "uint256",
          "name": "currentBalance",
          "type": "uint256"
        },
        {
          "internalType": "uint256",
          "name": "numPlayers",
          "type": "uint256"
        },
        {
          "internalType": "uint256",
          "name": "lotteryState",
          "type": "uint256"
        }
      ],
      "name": "Lottery__UpkeepNotNeeded",
      "type": "error"
    },
    {
      "inputs": [
        {
          "internalType": "address",
          "name": "have",
          "type": "address"
        },
        {
          "internalType": "address",
          "name": "want",
          "type": "address"
        }
      ],
      "name": "OnlyCoordinatorCanFulfill",
      "type": "error"
    },
    {
      "anonymous": false,
      "inputs": [
        {
          "indexed": true,
          "internalType": "address",
          "name": "player",
          "type": "address"
        }
      ],
      "name": "EnteredLottery",
      "type": "event"
    },
    {
      "anonymous": false,
      "inputs": [
        {
          "indexed": true,
          "internalType": "address",
          "name": "winner",
          "type": "address"
        }
      ],
      "name": "PickedWinner",
      "type": "event"
    },
    {
      "anonymous": false,
      "inputs": [
        {
          "indexed": true,
          "internalType": "uint256",
          "name": "requestId",
          "type": "uint256"
        }
      ],
      "name": "RequestedLotteryWinner",
      "type": "event"
    },
    {
      "inputs": [
        {
          "internalType": "bytes",
          "name": "",
          "type": "bytes"
        }
      ],
      "name": "checkUpkeep",
      "outputs": [
        {
          "internalType": "bool",
          "name": "upkeepNeeded",
          "type": "bool"
        },
        {
          "internalType": "bytes",
          "name": "",
          "type": "bytes"
        }
      ],
      "stateMutability": "view",
      "type": "function"
    },
    {
      "inputs": [],
      "name": "enterLottery",
      "outputs": [],
      "stateMutability": "payable",
      "type": "function"
    },
    {
      "inputs": [],
      "name": "getEntranceFee",
      "outputs": [
        {
          "internalType": "uint256",
          "name": "",
          "type": "uint256"
        }
      ],
      "stateMutability": "view",
      "type": "function"
    },
    {
      "inputs": [],
      "name": "getLastTimeStamp",
      "outputs": [
        {
          "internalType": "uint256",
          "name": "",
          "type": "uint256"
        }
      ],
      "stateMutability": "view",
      "type": "function"
    },
    {
      "inputs": [],
      "name": "getLengthOfPlayers",
      "outputs": [
        {
          "internalType": "uint256",
          "name": "",
          "type": "uint256"
        }
      ],
      "stateMutability": "view",
      "type": "function"
    },
    {
      "inputs": [],
      "name": "getLotteryState",
      "outputs": [
        {
          "internalType": "enum Lottery.LotteryState",
          "name": "",
          "type": "uint8"
        }
      ],
      "stateMutability": "view",
      "type": "function"
    },
    {
      "inputs": [
        {
          "internalType": "uint256",
          "name": "indexOfPlayer",
          "type": "uint256"
        }
      ],
      "name": "getPlayer",
      "outputs": [
        {
          "internalType": "address",
          "name": "",
          "type": "address"
        }
      ],
      "stateMutability": "view",
      "type": "function"
    },
    {
      "inputs": [],
      "name": "getRecentWinner",
      "outputs": [
        {
          "internalType": "address",
          "name": "",
          "type": "address"
        }
      ],
      "stateMutability": "view",
      "type": "function"
    },
    {
      "inputs": [
        {
          "internalType": "bytes",
          "name": "",
          "type": "bytes"
        }
      ],
      "name": "performUpkeep",
      "outputs": [],
      "stateMutability": "nonpayable",
      "type": "function"
    },
    {
      "inputs": [
        {
          "internalType": "uint256",
          "name": "requestId",
          "type": "uint256"
        },
        {
          "internalType": "uint256[]",
          "name": "randomWords",
          "type": "uint256[]"
        }
      ],
      "name": "rawFulfillRandomWords",
      "outputs": [],
      "stateMutability": "nonpayable",
      "type": "function"
    }
  ],
  "bytecode": {
    "object": "0x61016060405234801561001157600080fd5b50604051610ca0380380610ca083398101604081905261003091610084565b6001600160a01b0393909316608081905260a09590955260c0939093526101005260e0929092526001600160401b03166101205263ffffffff16610140526002805460ff60a01b191690554260015561010f565b60008060008060008060c0878903121561009d57600080fd5b86516020880151604089015191975095506001600160a01b03811681146100c357600080fd5b6060880151608089015191955093506001600160401b03811681146100e757600080fd5b60a088015190925063ffffffff8116811461010157600080fd5b809150509295509295509295565b60805160a05160c05160e051610100516101205161014051610b2a61017660003960006103710152600061033a01526000610314015260006103af0152600061045801526000818160a501526104ff0152600081816101fe01526102400152610b2a6000f3fe6080604052600436106100915760003560e01c80636b68c03c116100595780636b68c03c146101615780636e04ff0d14610188578063c1af5785146101b6578063c1c244e8146101be578063e55ae4e8146101d357600080fd5b806309bc33a7146100965780630ea3df38146100d85780631fe543e3146100ed5780634585e33b1461010f578063473f1ddc1461012f575b600080fd5b3480156100a257600080fd5b507f00000000000000000000000000000000000000000000000000000000000000005b6040519081526020015b60405180910390f35b3480156100e457600080fd5b506000546100c5565b3480156100f957600080fd5b5061010d610108366004610814565b6101f3565b005b34801561011b57600080fd5b5061010d61012a3660046108c6565b610280565b34801561013b57600080fd5b506002546001600160a01b03165b6040516001600160a01b0390911681526020016100cf565b34801561016d57600080fd5b50600254600160a01b900460ff166040516100cf919061094e565b34801561019457600080fd5b506101a86101a3366004610976565b610450565b6040516100cf929190610a0b565b61010d6104fd565b3480156101ca57600080fd5b506001546100c5565b3480156101df57600080fd5b506101496101ee366004610a63565b6105e8565b336001600160a01b037f000000000000000000000000000000000000000000000000000000000000000016146102725760405163073e64fd60e21b81523360048201526001600160a01b037f00000000000000000000000000000000000000000000000000000000000000001660248201526044015b60405180910390fd5b61027c8282610617565b5050565b600061029a60405180602001604052806000815250610450565b509050806102f057600054600254479190600160a01b900460ff1660018111156102c6576102c6610938565b604051636e195f2560e01b8152600481019390935260248301919091526044820152606401610269565b60028054600160a01b60ff60a01b199091161790556040516305d3b1d360e41b81527f000000000000000000000000000000000000000000000000000000000000000060048201527f000000000000000000000000000000000000000000000000000000000000000067ffffffffffffffff166024820152600360448201527f000000000000000000000000000000000000000000000000000000000000000063ffffffff166064820152600160848201526000906001600160a01b037f00000000000000000000000000000000000000000000000000000000000000001690635d3b1d309060a4016020604051808303816000875af11580156103f8573d6000803e3d6000fd5b505050506040513d601f19601f8201168201806040525081019061041c9190610a7c565b60405190915081907febf56642252004c18a776f30d528e7a0ce8c5db14b6596fb6550f630c8a24c6c90600090a250505050565b6000606060007f0000000000000000000000000000000000000000000000000000000000000000600154426104859190610a95565b101590506000600260149054906101000a900460ff1660018111156104ac576104ac610938565b600054901591504715159015158380156104c35750825b80156104cc5750815b80156104d55750805b60408051808201909152600381526203078360ec1b6020820152909890975095505050505050565b7f000000000000000000000000000000000000000000000000000000000000000034101561053e5760405163168b2e4d60e01b815260040160405180910390fd5b6000600254600160a01b900460ff16600181111561055e5761055e610938565b1461057c5760405163823ea8bb60e01b815260040160405180910390fd5b600080546001810182558180527f290decd9548b62a8d60345a988386fc84ba6bc95484008f6362f93160ef3e5630180546001600160a01b0319163390811790915560405190917fc8001bd3c1806afa3fbde07a543ea4392bd51d3b466cd2427d82baabd430f2a991a2565b60008082815481106105fc576105fc610abc565b6000918252602090912001546001600160a01b031692915050565b6000805482518390839061062d5761062d610abc565b602002602001015161063f9190610ad2565b9050600080828154811061065557610655610abc565b600091825260208083209190910154600280546001600160a81b0319166001600160a01b039092169182179055604080518481529283019081905291519093506106a0929190610753565b50426001556040516001600160a01b038216907fb112587e57bfa970257f3d54fc52859c6300f6bd7a982462c320fed45c2530ed90600090a26000816001600160a01b03164760405160006040518083038185875af1925050503d8060008114610726576040519150601f19603f3d011682016040523d82523d6000602084013e61072b565b606091505b505090508061074c5760405162e4a00960e51b815260040160405180910390fd5b5050505050565b8280548282559060005260206000209081019282156107a8579160200282015b828111156107a857825182546001600160a01b0319166001600160a01b03909116178255602090920191600190910190610773565b506107b49291506107b8565b5090565b5b808211156107b457600081556001016107b9565b634e487b7160e01b600052604160045260246000fd5b604051601f8201601f1916810167ffffffffffffffff8111828210171561080c5761080c6107cd565b604052919050565b6000806040838503121561082757600080fd5b8235915060208084013567ffffffffffffffff8082111561084757600080fd5b818601915086601f83011261085b57600080fd5b81358181111561086d5761086d6107cd565b8060051b915061087e8483016107e3565b818152918301840191848101908984111561089857600080fd5b938501935b838510156108b65784358252938501939085019061089d565b8096505050505050509250929050565b600080602083850312156108d957600080fd5b823567ffffffffffffffff808211156108f157600080fd5b818501915085601f83011261090557600080fd5b81358181111561091457600080fd5b86602082850101111561092657600080fd5b60209290920196919550909350505050565b634e487b7160e01b600052602160045260246000fd5b602081016002831061097057634e487b7160e01b600052602160045260246000fd5b91905290565b6000602080838503121561098957600080fd5b823567ffffffffffffffff808211156109a157600080fd5b818501915085601f8301126109b557600080fd5b8135818111156109c7576109c76107cd565b6109d9601f8201601f191685016107e3565b915080825286848285010111156109ef57600080fd5b8084840185840137600090820190930192909252509392505050565b821515815260006020604081840152835180604085015260005b81811015610a4157858101830151858201606001528201610a25565b506000606082860101526060601f19601f830116850101925050509392505050565b600060208284031215610a7557600080fd5b5035919050565b600060208284031215610a8e57600080fd5b5051919050565b81810381811115610ab657634e487b7160e01b600052601160045260246000fd5b92915050565b634e487b7160e01b600052603260045260246000fd5b600082610aef57634e487b7160e01b600052601260045260246000fd5b50069056fea26469706673582212200b799b93e4369bd25bb279c94f141e9bd3b9f1a55f27264afe32a0d32ac5de6e64736f6c63430008130033",
    "linkReferences": {}
  },
  "methodIdentifiers": {
    "checkUpkeep(bytes)": "6e04ff0d",
    "enterLottery()": "c1af5785",
    "getEntranceFee()": "09bc33a7",
    "getLastTimeStamp()": "c1c244e8",
    "getLengthOfPlayers()": "0ea3df38",
    "getLotteryState()": "6b68c03c",
    "getPlayer(uint256)": "e55ae4e8",
    "getRecentWinner()": "473f1ddc",
    "performUpkeep(bytes)": "4585e33b",
    "rawFulfillRandomWords(uint256,uint256[])": "1fe543e3"
  },
  "id": 28
}